:100000003FC00000000000000000000000000000F1
:1000100000000000000000000000000000000000E0
:1000200000000000000000000000000000000000D0
:1000300000000000000000000000000000000000C0
:1000400000000000000000000000000000000000B0
:1000500000000000000000000000000000000000A0
:100060000000000000000000000000000000000090
:100070000000000000000000000000000000000080
:1000800011241FBECFEFD8E0CDBFDEBF21E0A0E03E
:10009000B1E001C01D92A038B207E1F7FCC218C060
:1000A000000079FA8005950F090212000101008015
:1000B0003209040000000000000012011001FF00DE
:1000C0000008D016530703020000000104030904CE
:1000D00011241FBECFEFD8E0CDBFDEBF21E0A0E0EE
:1000E000B1E001C01D92A634B207E1F78AC1A82F82
:1000F000B92F80E090E041E050EA609530E009C01F
:100100002D9182279795879510F084279527305E4B
:10011000C8F36F5FA8F30895EADF8D939D93089568
:10012000CF93CFB7CF93DF93C3954C9BE9F74C9B0D
:1001300010C04C9B0EC04C9B0CC04C9B0AC04C9BEF
:1001400008C04C9B06C0C0911D01C395C0931D0102
:1001500094C06F93C0911A01DD27CC5DDE4F2F93C1
:1001600065E54C9B03C02F916F91E1CF0F931F93D7
:100170004F9320E040E15F9309B1047104FB27F93C
:100180003F9350E03BE039C0147140642F77012F5A
:100190005F5F1EC0406819B114712F7752501FC0A5
:1001A000406409B12F770471D1F15F5F00C023C0B3
:1001B000406219B12F77147191F15F5F00C025C0C3
:1001C00004711027515012F45D5F00001150279503
:1001D0002C3F19B1C8F614710127015027952C3F07
:1001E000C8F64227499309B1047110274F73115083
:1001F00027952C3FA8F64695469519B1147179F0CC
:100200000127015027952C3F98F66B5A60F3315027
:1002100009B1B0F600C011E01CBB002722C03B5062
:100220003195C31BD04011E01CBB0881033C51F148
:100230000B3441F1209118011981110F1213EDCFE8
:100240004A81441F093699F10D3211F0013E29F718
:10025000C0911B01CC2329F01CB310FD02C0CA952C
:10026000D9F7009322013F915F914F911F910F9118
:100270002F916F91CCB3C0FD57CFDF91CF91CFBFFE
:10028000CF91089520912201222369F3109120013A
:100290001123E9F53430EAF130932001209319015C
:1002A00010911A013BE0311B30931A0132C00091CA
:1002B0002001013064F50AE54F7049F430911C01CA
:1002C00034FD28C000931C01C1E0D1E027C04330B9
:1002D00049F030910C0134FD1DC000930C01CDE0BC
:1002E000D1E01CC030913A0134FD14C000933A01B2
:1002F000CBE3D1E013C0052710E000C000000BB92C
:100300001AC0052710E0221F1DC010E021C04AE5D9
:1003100002C032ED432FC4E1D0E032E01AB11461E3
:100320005C9A0BB11AB954E120E865E320FF052778
:100330000BB9279517951C3FF0F66695B8F7B1F7FE
:1003400020FF05270BB9279517951C3FD0F6279559
:10035000179517FF052700001C3F0BB9B0F6299130
:100360003A9519F70B7E10912101110FC651D0401B
:100370000BB911F01093180111E01CBB00611AB108
:100380001B7E402F4B7E54E05A95F1F70BB91AB9FA
:100390004BB969CFF201309731F0E230F10529F421
:1003A00080E09DE302C08CE094E921E00C01209301
:1003B0005700E8951124CF0102962C01089514BE30
:1003C000E0E6F0E088E1808387E08083549A2FEFB5
:1003D00085EA9EE0215080409040E1F700C0000097
:1003E00054988AE580931C018FEF809300018AE086
:1003F00080931B01E9E6F0E0808183608083E89AC6
:100400000895DDDF4398712C312C412C512CC5ED22
:10041000D4E184E699B1947109F084E6815021F425
:100420001092210110921801E09B05C079DE81E055
:100430008CBB712C02C0219769F7A895832D82305F
:1004400081F4E0E0FAE7E058F10983E08093570097
:10045000E89507B600FCFDCF3097A9F7412C512C49
:1004600015C0803471F4F2013297E1152AE7F207E2
:1004700068F485E080935700E89507B600FCFDCF4F
:1004800005C0843019F4CD2B11F4EAC0312C8091D1
:100490002001835087FD96C0909119019D3209F08B
:1004A0008FC0883009F08CC080911A01CCE0D0E078
:1004B000C81BD109CC5DDE4F83EC809301018AE536
:1004C00080931C01888180769981882351F1911154
:1004D00008C084E09AE790931F0180931E0186E094
:1004E00066C0913061F441145104C9F08C81807868
:1004F000482E5D8081E180935700E89510C09330CD
:1005000061F48A819B8146DF8C819D8143DF842D4C
:100510008F7729F490E4392E4AC09F73392E80E0FA
:1005200046C08A8110920A01911106C010920B01F7
:100530002AE031E082E037C0953019F48093210140
:1005400024C09630E1F49B81913019F48CE19AE754
:1005500004C0923041F48AE09AE790931F0180939F
:100560001E0182E124C09330D1F68111D8CF8EE2F2
:100570009AE790931F0180931E0184E018C0983081
:1005800079F0993031F4809323012AE031E080E062
:100590000AC081E09A3009F080E02AE031E003C02F
:1005A00023E231E081E030931F0120931E019F81FF
:1005B000911104C09E81981708F4892F809300013F
:1005C0001092200180911C0184FF2FC080910001B6
:1005D0008F3F59F1C82F893008F0C8E08C1B8093F9
:1005E00000019091010188E8892780930101CC23C3
:1005F00081F0E0911E01F0911F01A2E0B1E08C2F8B
:1006000094919D9331968150D9F7F0931F01E09317
:100610001E016C2F82E091E07FDDCC5FCC3019F0C1
:100620008FEF80930001C0931C01C30101963C0130
:10063000803B944029F4EDEFF9E7E491EF3F81F43A
:10064000862D8C7411F03B9801C03B9AE09BDFCE65
:100650008CE14C9B8CE18150E1F781E08CBBD7CEE3
:100660003B98ADDE1DBA1092690017CDFFCF8078A0
:1006700020E030E0FC01E20FF31F45915491F901B5
:10068000EE7FE050FF4F518340832E5F3F4F203875
:10069000310581F70895CF93DF938AB184618AB9D8
:1006A0008BB18B7E8BB943983B9A8AEFE0EAFFE0EF
:1006B0003197F1F78150D1F7F894F999FECF07B649
:1006C00000FCFDCFC0E8D0E0D695C795C150D0441E
:1006D00080E090E0CCDF8091000190910101C8178B
:1006E000D90741F0D0930101C093000180E090E070
:1006F0000E940038C0E0D0E08EE696E08E5990402F
:10070000C817D9076CF520E030E0F901EC0FFD1FA8
:10071000E256FF4FC9019595879546E0EE36F407FE
:1007200054F0880F991FFC01E050FF4F8FEF9FEFAF
:100730009183808309C045915491880F991FFC01D2
:10074000E050FF4F518340832E5F3F4F20383105EB
:10075000E1F6CE0196580E940038C058DF4FCCCF4A
:10076000E0E0F1E08CE094E99183808380E09DE318
:1007700093838283349681E0E038F80799F780E02C
:1007800090E00E94003880E899E771DF8FEF9FEFDB
:1007900090937D0180937C0180E899E70E94003866
:1007A00080E0982F9C7411F03B9801C03B9AE0EADE
:1007B000FFE03197F1F78F5F8A3F99F784E6E0EA2F
:1007C000FFE03197F1F78150D1F73B98E0E0F0E09E
:0C07D000099580E090E0DF91CF91089542
:10700000807823E0FC0120935700E89507B600FC48
:10701000FDCFA0E0B1E0FC01E050F140EA0FFB1F22
:107020004D915D9121E00A0120935700E8951124CC
:10703000F1E0A038BF0779F725E0FC012093570065
:10704000E89507B600FCFDCF81E180935700E895F5
:027050000895A1
:00000001FF
