:100000003FC00000000000000000000000000000F1
:1000100000000000000000000000000000000000E0
:1000200000000000000000000000000000000000D0
:1000300000000000000000000000000000000000C0
:1000400000000000000000000000000000000000B0
:1000500000000000000000000000000000000000A0
:100060000000000000000000000000000000000090
:100070000000000000000000000000000000000080
:1000800011241FBECFEFD8E0CDBFDEBF21E0A0E03E
:10009000B1E001C01D92A038B207E1F7D8C218C084
:1000A00000007A7A8005951409021200010100808F
:1000B0003209040000000000000012011001FF00DE
:1000C0000008D016530703020000000104030904CE
:1000D00011241FBECFEFD8E0CDBFDEBF21E0A0E0EE
:1000E000B1E001C01D92AC32B207E1F761C1A82FA7
:1000F000B92F80E090E041E050EA609530E009C01F
:100100002D9182279795879510F084279527305E4B
:10011000C8F36F5FA8F30895EADF8D939D93089568
:10012000CF93CFB7CF93DF93C3954C9BE9F74C9B0D
:100130000BC04C9B09C04C9B07C04C9B05C04C9B03
:1001400003C04C9B01C08FC06F93C0910E01DD278F
:10015000CA5EDE4F2F9365E54C9B03C02F916F91D4
:10016000E6CF0F931F934F9320E040E15F9309B1D7
:10017000047104FB27F93F9350E03BE039C0147150
:1001800040642F77012F5F5F1EC0406819B1147162
:100190002F7752501FC0406409B12F770471D1F1FD
:1001A0005F5F00C023C0406219B12F77147191F1D5
:1001B0005F5F00C025C004711027515012F45D5FCD
:1001C0000000115027952C3F19B1C8F61471012772
:1001D000015027952C3FC8F64227499309B1047175
:1001E00010274F73115027952C3FA8F6469546953A
:1001F00019B1147179F00127015027952C3F98F619
:100200006B5A60F3315009B1B0F600C011E01CBB6D
:1002100000271DC03B503195C31BD04011E01CBBD3
:100220000881033C29F10B3419F120910C0119814B
:10023000110F1213EDCF093651F10D3211F0013EBD
:1002400039F7CAE01CB310FD02C0CA95D9F7009374
:1002500014013F915F914F911F910F912F916F91D9
:10026000CCB3C0FD61CFDF91CF91CFBFCF910895C7
:1002700020911401222369F310911201112309F531
:1002800034300AF13093120120930D011CC000910B
:1002900012010130B4F40AE530910F0134FD14C0AD
:1002A00000930F01C1E0D1E013C0052710E000C0AA
:1002B00000000BB91AC0052710E0221F1DC010E076
:1002C00021C04AE502C032ED432FC4E1D0E032E064
:1002D0001AB114615C9A0BB11AB954E120E865E3D4
:1002E00020FF05270BB9279517951C3FF0F666955B
:1002F000B8F7B1F720FF05270BB9279517951C3FD5
:10030000D0F62795179517FF052700001C3F0BB95E
:10031000B0F629913A9519F70B7E10911301110F40
:10032000C651D0400BB911F010930C0111E01CBB69
:1003300000611AB11B7E402F4B7E54E05A95F1F7B5
:100340000BB91AB94BB985CFF201309731F0E230D1
:10035000F10529F480E49DE302C08CE094E921E0FA
:100360000C0120935700E8951124CF0102962C012F
:10037000089514BEE0E6F0E088E1808387E08083A2
:10038000549A2FEF85EA9EE0215080409040E1F79B
:1003900000C0000054988AE580930F018FEF80938E
:1003A0000001E9E6F0E0808183608083E89A0895A7
:1003B000E0DF259A712C312C412C512CC5EDD4E174
:1003C00084E699B1947109F084E6815021F4109289
:1003D000130110920C01E09B05C0A2DE81E08CBBF2
:1003E000712C02C0219769F7A895832D823081F482
:1003F000E0E8FAE7E058F10983E080935700E895D8
:1004000007B600FCFDCF3097A9F7412C512C15C041
:10041000803471F4F2013297E0382AE7F20768F489
:1004200085E080935700E89507B600FCFDCF05C036
:10043000843019F4CD2B11F4EEC0312C80911201CF
:10044000835087FD9AC090910D019D3209F093C0B1
:10045000883009F090C083EC809301018AE5809395
:100460000F0180911701807690911801882381F106
:10047000911108C084E89AE79093110180931001CC
:1004800086E06EC0913071F441145104F9F080910E
:100490001B018078482E50901C0181E18093570009
:1004A000E89514C0933081F48091190190911A015C
:1004B0004BDF80911B0190911C0146DF842D8F77CB
:1004C00029F490E4392E4CC09F73392E80E048C047
:1004D0008091190110920A01911106C010920B012E
:1004E0002AE031E082E038C0953019F4809313019E
:1004F00025C09630E9F490911A01913019F48CE9F5
:100500009AE704C0923041F48AE89AE79093110187
:100510008093100182E124C09330C1F68111D6CFBF
:100520008EEA9AE7909311018093100184E018C03D
:10053000983079F0993031F4809315012AE031E058
:1005400080E00AC081E09A3009F080E02AE031E0E2
:1005500003C025E131E081E03093110120931001C7
:1005600090911E01911105C090911D01981708F4FA
:10057000892F809300011092120180910F0184FF56
:100580002FC0809100018F3F59F1C82F893008F0AA
:10059000C8E08C1B809300019091010188E88927B5
:1005A00080930101CC2381F0E0911001F0911101C1
:1005B000A2E0B1E08C2F94919D9331968150D9F7B0
:1005C000F0931101E09310016C2F82E091E0A4DD23
:1005D000CC5FCC3019F08FEF80930001C0930F01F6
:1005E000C30101963C01803B944029F4EDE7FAE712
:1005F000E491EF3F81F4862D8C7411F02D9801C0A9
:100600002D9AE09BDBCE8CE14C9B8CE18150E1F795
:1006100081E08CBBD3CE25982D98ABDE1DBA10920D
:1006200069003BCDFFCF807820E030E0FC01E20F95
:10063000F31F45915491F901EE7FE050FF4F518334
:1006400040832E5F3F4F2038310581F70895CF93C7
:10065000DF938AB184618AB98BB18B7E8BB9259A7D
:100660002D9A8AEFE0EAFFE03197F1F78150D1F758
:10067000F894F999FECF07B600FCFDCFC0E8D0E0B2
:10068000D695C795C150D04480E090E0CCDF8091F2
:10069000000190910101C817D90741F0D0930101E1
:1006A000C093000180E090E00E940038C0E0D0E0FC
:1006B00086E296E08E599040C817D90774F520E07D
:1006C00030E0F901EC0FFD1FE256FF4FC90195958F
:1006D000879546E0E632F40754F0880F991FFC0135
:1006E000E050FF4F8FEF9FEF9183808309C04591CA
:1006F0005491880F991FFC01E050FF4F51834083B4
:100700002E5F3F4F20383105E1F6CE0180589548E5
:100710000E940038C058DF4FCBCFE0E0F1E08CE022
:1007200094E99183808380E49DE39383828334966C
:1007300081E0E038F80799F780E090E00E94003807
:1007400080E09AE770DF8FEF9FEF90937D018093B9
:100750007C0180E09AE70E94003880E0982F9C742A
:1007600011F02D9801C02D9AE0EAFFE03197F1F7E2
:100770008F5F8A3F99F784E6E0EAFFE03197F1F76F
:100780008150D1F725982D98E0E0F0E0099580E0C0
:0807900090E0DF91CF91089584
:10700000807823E0FC0120935700E89507B600FC48
:10701000FDCFA0E0B1E0FC01E050F140EA0FFB1F22
:107020004D915D9121E00A0120935700E8951124CC
:10703000F1E0A038BF0779F725E0FC012093570065
:10704000E89507B600FCFDCF81E180935700E895F5
:027050000895A1
:00000001FF
