:100000001FC0000000000000000000000000000011
:1000100000000000000000000000000000000000E0
:1000200000000000000000000000000000000000D0
:1000300000000000000000000000000000000000C0
:1000400011241FBECFE5D4E0CDBFDEBF20E0A0E687
:10005000B0E001C01D92A03AB207E1F7CFC217C0CD
:100060001A7A400593070902120001010080320943
:10007000040000000000000012011001FF00000851
:10008000D0165307030200000001040309041124E1
:100090001FBECFE5D4E0CDBFDEBF20E0A0E6B0E0DC
:1000A00001C01D92AC38B207E1F759C1A82FB92F92
:1000B00080E090E041E050EA609530E009C02D9189
:1000C00082279795879510F084279527305EC8F38F
:1000D0006F5FA8F30895EADF8D939D930895CF9302
:1000E000CFB7CF93DF93C395849BE9F7849B0BC075
:1000F000849B09C0849B07C0849B05C0849B03C06C
:10010000849B01C08FC06F93C0916E00DD27CA58D9
:10011000DF4F2F9365E5849B03C02F916F91E6CF4E
:100120000F931F934F9320E040E15F9300B304715E
:1001300004FB27F93F9350E03BE039C01471406461
:100140002F77012F5F5F1EC0406810B314712F77A7
:1001500052501FC0406400B32F770471D1F15F5F2C
:1001600000C023C0406210B32F77147191F15F5F1C
:1001700000C025C004711027515012F45D5F0000CB
:10018000115027952C3F10B3C8F614710127015068
:1001900027952C3FC8F64227499300B304711027D6
:1001A0004F73115027952C3FA8F64695469510B3EE
:1001B000147179F00127015027952C3F98F66B5A5E
:1001C00060F3315000B3B0F600C010E41ABF00274E
:1001D0001DC03B503195C31BD04010E41ABF0881AD
:1001E000033C29F10B3419F120916C001981110F96
:1001F0001213EDCF093651F10D3211F0013E39F7EE
:10020000CAE01AB716FD02C0CA95D9F70093740068
:100210003F915F914F911F910F912F916F91CAB7AD
:10022000C6FD61CFDF91CF91CFBFCF9108952091CF
:100230007400222369F310917200112309F5343000
:100240000AF13093720020936D001CC0009172007F
:100250000130B4F40AE530916F0034FD14C000930E
:100260006F00C1E6D0E013C0052710E000C0000019
:1002700002BB1AC0052710E0221F1DC010E021C0DC
:100280004AE502C032ED432FC4E1D0E032E011B3C1
:100290001461949A02B311BB54E120E865E320FF96
:1002A000052702BB279517951C3FF0F66695B8F712
:1002B000B1F720FF052702BB279517951C3FD0F605
:1002C0002795179517FF052700001C3F02BBB0F6C6
:1002D00029913A9519F70B7E10917300110FC651B1
:1002E000D04002BB11F010936C0010E41ABF006103
:1002F00011B31B7E402F4B7E54E05A95F1F702BBA1
:1003000011BB42BB85CFF201309711F48FE39DEC16
:1003100021E00C0120935700E8951124CF010296AB
:100320002C01089514BE88E181BD87E081BD8C9ABF
:100330002FEF85EA9EE0215080409040E1F700C019
:1003400000008C988AE580936F008FEF80936000A7
:1003500085B7836085BF8BB780648BBF0895E2DF6C
:10036000AB98712C312C412C512CC5EDD4E184E695
:1003700090B3947109F084E6815021F410927300D7
:1003800010926C000AB606FE05C0A9DE80E48ABFA2
:10039000712C02C0219761F7A895832D823081F4DA
:1003A000E0E8FAE1E054F10983E080935700E89532
:1003B00007B600FCFDCF3097A9F7412C512C15C092
:1003C000803471F4F2013297E0382AE1F20768F4E0
:1003D00085E080935700E89507B600FCFDCF05C087
:1003E000843019F4CD2B11F4EFC0312C80917200C0
:1003F000835087FD9AC090916D009D3209F093C0A3
:10040000883009F090C083EC809361008AE5809386
:100410006F0080917700807690917800882381F139
:10042000911108C082E89AE1909371008093700066
:1004300086E06EC0913071F441145104F9F080915E
:100440007B00807C482E50907C0081E18093570097
:10045000E89514C0933081F48091790090917A00EE
:1004600052DF80917B0090917C004DDF842D8F7353
:1004700029F490E4392E4CC09F73392E80E048C097
:100480008091790010926A00911106C010926B0061
:100490002AE630E082E038C0953019F4809373008A
:1004A00025C09630E9F490917A00913019F48AE9E8
:1004B0009AE104C0923041F488E89AE19093710087
:1004C0008093700082E124C09330C1F68111D6CFB1
:1004D0008CEA9AE1909371008093700084E018C0D8
:1004E000983079F0993031F4809375002AE630E045
:1004F00080E00AC081E09A3009F080E02AE630E02E
:1005000003C025E730E081E0309371002093700054
:1005100090917E00911105C090917D00981708F48C
:10052000892F809360001092720080916F0084FF89
:100530002FC0809160008F3F59F1C82F893008F09B
:10054000C8E08C1B809360009091610088E8892747
:1005500080936100CC2381F0E0917000F0917100F4
:10056000A2E6B0E08C2F94919D9331968150D9F7FB
:10057000F0937100E09370006C2F82E690E0ABDDA9
:10058000CC5FCC3019F08FEF80936000C0936F0088
:10059000C30101963C01803B944029F4EDE7FAE168
:1005A000E491EF3F89F4862D8C7411F0A39801C07B
:1005B000A39A0AB606FED9CE8CE1849B8CE18150C9
:1005C000E1F780E48ABFD1CEA398ACDE1BBE15BE96
:1005D00044CDFFCF807C20E030E0FC01E20FF31F30
:1005E00045915491F901EE7FE05AFF4F51834083CA
:1005F0002E5F3F4F2034310581F70895CF93DF936D
:1006000081B3846181BB82B38B7E82BBAB98A39A9A
:100610008AEFE0EAFFE03197F1F78150D1F7F894E3
:10062000E199FECF07B600FCFDCFC0E4D0E0D6953F
:10063000C795C150D04480E090E0CCDF809160004D
:1006400090916100C817D90739F0D0936100C09329
:10065000600080E090E0D4D8C0E0D0E084ED95E088
:100660008E559040C817D9076CF520E030E0F901AD
:10067000EC0FFD1FE25AFF4FC9019595879545E0A4
:10068000E43DF40754F0880F991FFC01E05AFF4F36
:100690008FEF9FEF9183808309C045915491880F1C
:1006A000991FFC01E05AFF4F518340832E5F3F4F5B
:1006B00020343105E1F6CE018058954EA1D8C05CBA
:1006C000DF4FCCCFE0E6F0E08CE094E991838083CB
:1006D00080E49DE093838283349680E0E03AF807DB
:1006E00099F780E090E08CD880E49AE173DF8FEF97
:1006F0009FEF90939D0080939C0080E49AE180D8C6
:1007000080E0982F9C7411F0A39801C0A39AE0EAAE
:10071000FFE03197F1F78F5F8A3F99F784E6E0EACF
:10072000FFE03197F1F78150D1F7A398E0E0F0E0D6
:0C073000099580E090E0DF91CF910895E2
:10180000807C23E0FC0120935700E89507B600FC9C
:10181000FDCFA0E6B0E0FC01E056F040EA0FFB1F70
:101820004D915D9121E00A0120935700E895112424
:10183000F0E0A03ABF0779F725E0FC0120935700BC
:10184000E89507B600FCFDCF81E180935700E8954D
:021850000895F9
:00000001FF
