:100000001FC0000000000000000000000000000011
:1000100000000000000000000000000000000000E0
:1000200000000000000000000000000000000000D0
:1000300000000000000000000000000000000000C0
:10004000112420E0A0E6B0E001C01D92A03AB20762
:10005000E1F701C317C01A3A4005930B09021200D9
:1000600001010080320904000000000000001201BC
:100070001001FF000008D016530703020000000122
:1000800004030904112420E0A0E6B0E001C01D92A1
:10009000AC38B207E1F776C1A82FB92F80E090E025
:1000A00041E050EA609530E009C02D918227979594
:1000B000879510F084279527305EC8F36F5FA8F30B
:1000C0000895EADF8D939D930895CF93CFB7CF9393
:1000D000DF93C395B39BE9F7B39B0BC0B39B09C0F8
:1000E000B39B07C0B39B05C0B39B03C0B39B01C0C8
:1000F0008FC06F93C0916E00DD27CA58DF4F2F93DA
:1001000065E5B39B03C02F916F91E6CF0F931F93CB
:100110004F9320E040E15F9306B3087103FB27F99A
:100120003F9350E03BE039C0187140642F77012FB6
:100130005F5F1EC0406816B318712F7752501FC002
:10014000406406B32F770871D1F15F5F00C023C010
:10015000406216B32F77187191F15F5F00C025C020
:1001600008711027515012F45D5F0000115027955F
:100170002C3F16B3C8F618710127015027952C3F64
:10018000C8F64227499306B3087110274F731150E0
:1001900027952C3FA8F64695469516B3187179F029
:1001A0000127015027952C3F98F66B5A60F3315088
:1001B00006B3B0F600C010E21ABF00271DC03B50C6
:1001C0003195C31BD04010E21ABF0881033C29F1CE
:1001D0000B3419F120916C001981110F1213EDCF1E
:1001E000093651F10D3211F0013E39F7CAE01AB764
:1001F00015FD02C0CA95D9F7009374003F915F9135
:100200004F911F910F912F916F91CAB7C5FD61CF8B
:10021000DF91CF91CFBFCF91089520917400222319
:1002200069F310917200112309F534300AF130930B
:10023000720020936D001CC0009172000130B4F474
:100240000AE530916F0034FD14C000936F00C1E6E1
:10025000D0E013C0052710E000C0000008BB1AC0A2
:10026000052710E0221F1DC010E021C04AE502C092
:1002700032ED432FC4E1D0E032E017B31861C39AE6
:1002800008B317BB58E120E865E320FF052708BB4A
:10029000279517951C3FF0F66695B8F7B1F720FF44
:1002A000052708BB279517951C3FD0F6279517956E
:1002B00017FF052700001C3F08BBB0F629913A95AF
:1002C00019F7077E10917300110FC651D04008BB7B
:1002D00011F010936C0010E21ABF086017B3177E7C
:1002E000402F477E54E05A95F1F708BB17BB48BB37
:1002F00085CF2FEFB0E8A0E04AE0B1BF00008DE766
:100300009CE0B399FECFB39BFECF0197B399FDCF8D
:1003100097FF03C0BA1B819501C0BA0FA69539F4A7
:10032000A0E428F4281710F031B7282FA1E041509D
:1003300021F731BF00000895F20121E00C01209364
:100340005700E8951124C20102962C01089514BEAD
:1003500088E181BD87E081BDBB9A2FEF85EA9EE0F1
:10036000215080409040E1F700C00000BB988AE532
:1003700080936F008FEF80936000AC9A8BB78062A0
:100380008BBF0895E4DF712C312C412C512CC5ED2D
:10039000D4E114E686B3887109F014E6115029F40B
:1003A0001092730010926C00A4DF0AB605FE05C01F
:1003B0008CDE80E28ABF712C02C0219759F7A89584
:1003C000832D823069F4E0E4FAE1E054F10983E03E
:1003D00080935700E8953097C1F7412C512C12C0FB
:1003E000803459F4F2013297E0342AE1F20750F4F4
:1003F00085E080935700E89505C0843019F4CD2B33
:1004000011F4E8C0312C80917200835087FD99C0AF
:1004100090916D009D3209F092C0883009F08FC034
:1004200083EC809361008AE580936F008091770070
:10043000807690917800882379F1911108C082E448
:100440009AE1909371008093700086E06DC09130C6
:1004500069F441145104F1F080917B00807C482EB6
:1004600050907C0081E187BFE89514C0933081F4FF
:100470008091790090917A005FDF80917B0090916C
:100480007C005ADF842D8F7329F490E4392E4CC000
:100490009F73392E80E048C08091790010926A00E5
:1004A000911106C010926B002AE630E082E038C05D
:1004B000953019F48093730025C09630E9F490913B
:1004C0007A00913019F48AE59AE104C0923041F43F
:1004D00088E49AE1909371008093700082E124C0D7
:1004E0009330C1F68111D6CF8CE69AE190937100DA
:1004F0008093700084E018C0983079F0993031F41E
:10050000809375002AE630E080E00AC081E09A30EE
:1005100009F080E02AE630E003C025E730E081E022
:10052000309371002093700090917E00911105C06E
:1005300090917D00981708F4892F809360001092A5
:10054000720080916F0084FF2FC0809160008F3F08
:1005500059F1C82F893008F0C8E08C1B80936000E7
:100560009091610088E8892780936100CC2381F015
:10057000E0917000F0917100A2E6B0E08C2F9491B0
:100580009D9331968150D9F7F0937100E0937000FC
:100590006C2F82E690E095DDCC5FCC3019F08FEFC8
:1005A00080936000C0936F00C30101963C01803BC3
:1005B000944029F4EDE3FAE1E491EF3F59F40AB6EF
:1005C00005FEE5CE8CE1B39B8CE18150E1F780E242
:1005D0008ABFDDCEBCDE1BBE15BA3ACDFFCF807C14
:1005E00020E030E0FC01E20FF31F45915491F90146
:1005F000EE7FE05AFF4F518340832E5F3F4F203400
:10060000310581F70895807C23E0FC012093570099
:10061000E89507B600FCFDCFA0E6B0E0FC01E0568F
:10062000F040EA0FFB1F4D915D9121E00A012093FC
:100630005700E8951124F0E0A03ABF0779F725E0CC
:10064000FC0120935700E89507B600FCFDCF81E13F
:1006500087BFE8950895CF93DF9387B3886187BB01
:1006600088B3877E88BB8AEFE0EAFFE03197F1F735
:100670008150D1F7F894E199FECF07B600FCFDCF89
:10068000C0E4D0E0D695C795C150D04480E090E05A
:10069000A6DF8091600090916100C817D90739F0FA
:1006A000D0936100C093600080E090E0ACDFC0E0D8
:1006B000D0E08EED95E084559040C817D9076CF5D1
:1006C00020E030E0F901EC0FFD1FEC5AFF4FC901AB
:1006D0009595879545E0EE3DF40754F0880F991FF6
:1006E000FC01E05AFF4F8FEF9FEF9183808309C099
:1006F00045915491880F991FFC01E05AFF4F518397
:1007000040832E5F3F4F20343105E1F6CE01805CFF
:10071000954E79DFC05CDF4FCCCFE0E6F0E08CE0B7
:1007200094E99183808380E29DE093838283349671
:1007300080E0E03AF80799F780E090E064DF80E03D
:100740009AE14DDF8FEF9FEF90939D0080939C0087
:1007500080E09AE158DF84E6E0EAFFE03197F1F7C4
:100760008150D1F7E0E0F0E0099580E090E0DF9182
:04077000CF91089588
:00000001FF
